{
  "contractName": "NFT",
  "abi": [
    {
      "inputs": [],
      "stateMutability": "nonpayable",
      "type": "constructor"
    },
    {
      "anonymous": false,
      "inputs": [
        {
          "indexed": true,
          "internalType": "address",
          "name": "owner",
          "type": "address"
        },
        {
          "indexed": true,
          "internalType": "address",
          "name": "approved",
          "type": "address"
        },
        {
          "indexed": true,
          "internalType": "uint256",
          "name": "tokenId",
          "type": "uint256"
        }
      ],
      "name": "Approval",
      "type": "event"
    },
    {
      "anonymous": false,
      "inputs": [
        {
          "indexed": true,
          "internalType": "address",
          "name": "owner",
          "type": "address"
        },
        {
          "indexed": true,
          "internalType": "address",
          "name": "operator",
          "type": "address"
        },
        {
          "indexed": false,
          "internalType": "bool",
          "name": "approved",
          "type": "bool"
        }
      ],
      "name": "ApprovalForAll",
      "type": "event"
    },
    {
      "anonymous": false,
      "inputs": [
        {
          "indexed": true,
          "internalType": "address",
          "name": "from",
          "type": "address"
        },
        {
          "indexed": true,
          "internalType": "address",
          "name": "to",
          "type": "address"
        },
        {
          "indexed": true,
          "internalType": "uint256",
          "name": "tokenId",
          "type": "uint256"
        }
      ],
      "name": "Transfer",
      "type": "event"
    },
    {
      "inputs": [],
      "name": "admin",
      "outputs": [
        {
          "internalType": "address",
          "name": "",
          "type": "address"
        }
      ],
      "stateMutability": "view",
      "type": "function",
      "constant": true
    },
    {
      "inputs": [
        {
          "internalType": "address",
          "name": "to",
          "type": "address"
        },
        {
          "internalType": "uint256",
          "name": "tokenId",
          "type": "uint256"
        }
      ],
      "name": "approve",
      "outputs": [],
      "stateMutability": "nonpayable",
      "type": "function"
    },
    {
      "inputs": [
        {
          "internalType": "address",
          "name": "owner",
          "type": "address"
        }
      ],
      "name": "balanceOf",
      "outputs": [
        {
          "internalType": "uint256",
          "name": "",
          "type": "uint256"
        }
      ],
      "stateMutability": "view",
      "type": "function",
      "constant": true
    },
    {
      "inputs": [
        {
          "internalType": "uint256",
          "name": "tokenId",
          "type": "uint256"
        }
      ],
      "name": "getApproved",
      "outputs": [
        {
          "internalType": "address",
          "name": "",
          "type": "address"
        }
      ],
      "stateMutability": "view",
      "type": "function",
      "constant": true
    },
    {
      "inputs": [
        {
          "internalType": "address",
          "name": "owner",
          "type": "address"
        },
        {
          "internalType": "address",
          "name": "operator",
          "type": "address"
        }
      ],
      "name": "isApprovedForAll",
      "outputs": [
        {
          "internalType": "bool",
          "name": "",
          "type": "bool"
        }
      ],
      "stateMutability": "view",
      "type": "function",
      "constant": true
    },
    {
      "inputs": [],
      "name": "name",
      "outputs": [
        {
          "internalType": "string",
          "name": "",
          "type": "string"
        }
      ],
      "stateMutability": "view",
      "type": "function",
      "constant": true
    },
    {
      "inputs": [],
      "name": "nextTokenId",
      "outputs": [
        {
          "internalType": "uint256",
          "name": "",
          "type": "uint256"
        }
      ],
      "stateMutability": "view",
      "type": "function",
      "constant": true
    },
    {
      "inputs": [
        {
          "internalType": "uint256",
          "name": "tokenId",
          "type": "uint256"
        }
      ],
      "name": "ownerOf",
      "outputs": [
        {
          "internalType": "address",
          "name": "",
          "type": "address"
        }
      ],
      "stateMutability": "view",
      "type": "function",
      "constant": true
    },
    {
      "inputs": [
        {
          "internalType": "address",
          "name": "from",
          "type": "address"
        },
        {
          "internalType": "address",
          "name": "to",
          "type": "address"
        },
        {
          "internalType": "uint256",
          "name": "tokenId",
          "type": "uint256"
        }
      ],
      "name": "safeTransferFrom",
      "outputs": [],
      "stateMutability": "nonpayable",
      "type": "function"
    },
    {
      "inputs": [
        {
          "internalType": "address",
          "name": "from",
          "type": "address"
        },
        {
          "internalType": "address",
          "name": "to",
          "type": "address"
        },
        {
          "internalType": "uint256",
          "name": "tokenId",
          "type": "uint256"
        },
        {
          "internalType": "bytes",
          "name": "_data",
          "type": "bytes"
        }
      ],
      "name": "safeTransferFrom",
      "outputs": [],
      "stateMutability": "nonpayable",
      "type": "function"
    },
    {
      "inputs": [
        {
          "internalType": "address",
          "name": "operator",
          "type": "address"
        },
        {
          "internalType": "bool",
          "name": "approved",
          "type": "bool"
        }
      ],
      "name": "setApprovalForAll",
      "outputs": [],
      "stateMutability": "nonpayable",
      "type": "function"
    },
    {
      "inputs": [
        {
          "internalType": "bytes4",
          "name": "interfaceId",
          "type": "bytes4"
        }
      ],
      "name": "supportsInterface",
      "outputs": [
        {
          "internalType": "bool",
          "name": "",
          "type": "bool"
        }
      ],
      "stateMutability": "view",
      "type": "function",
      "constant": true
    },
    {
      "inputs": [],
      "name": "symbol",
      "outputs": [
        {
          "internalType": "string",
          "name": "",
          "type": "string"
        }
      ],
      "stateMutability": "view",
      "type": "function",
      "constant": true
    },
    {
      "inputs": [
        {
          "internalType": "uint256",
          "name": "index",
          "type": "uint256"
        }
      ],
      "name": "tokenByIndex",
      "outputs": [
        {
          "internalType": "uint256",
          "name": "",
          "type": "uint256"
        }
      ],
      "stateMutability": "view",
      "type": "function",
      "constant": true
    },
    {
      "inputs": [
        {
          "internalType": "address",
          "name": "owner",
          "type": "address"
        },
        {
          "internalType": "uint256",
          "name": "index",
          "type": "uint256"
        }
      ],
      "name": "tokenOfOwnerByIndex",
      "outputs": [
        {
          "internalType": "uint256",
          "name": "",
          "type": "uint256"
        }
      ],
      "stateMutability": "view",
      "type": "function",
      "constant": true
    },
    {
      "inputs": [
        {
          "internalType": "uint256",
          "name": "tokenId",
          "type": "uint256"
        }
      ],
      "name": "tokenURI",
      "outputs": [
        {
          "internalType": "string",
          "name": "",
          "type": "string"
        }
      ],
      "stateMutability": "view",
      "type": "function",
      "constant": true
    },
    {
      "inputs": [],
      "name": "totalSupply",
      "outputs": [
        {
          "internalType": "uint256",
          "name": "",
          "type": "uint256"
        }
      ],
      "stateMutability": "view",
      "type": "function",
      "constant": true
    },
    {
      "inputs": [
        {
          "internalType": "address",
          "name": "from",
          "type": "address"
        },
        {
          "internalType": "address",
          "name": "to",
          "type": "address"
        },
        {
          "internalType": "uint256",
          "name": "tokenId",
          "type": "uint256"
        }
      ],
      "name": "transferFrom",
      "outputs": [],
      "stateMutability": "nonpayable",
      "type": "function"
    },
    {
      "inputs": [
        {
          "internalType": "address",
          "name": "to",
          "type": "address"
        }
      ],
      "name": "mint",
      "outputs": [],
      "stateMutability": "nonpayable",
      "type": "function"
    }
  ],
  "bytecode": "0x60806040523480156200001157600080fd5b506040518060400160405280600c81526020017f456c656d656e7473204e465400000000000000000000000000000000000000008152506040518060400160405280600381526020017f454c4d00000000000000000000000000000000000000000000000000000000008152508160009080519060200190620000969291906200010d565b508060019080519060200190620000af9291906200010d565b505050735fd399f8206b74753f82e70ad64e42fd26fe84c5600b60006101000a81548173ffffffffffffffffffffffffffffffffffffffff021916908373ffffffffffffffffffffffffffffffffffffffff16021790555062000222565b8280546200011b90620001bd565b90600052602060002090601f0160209004810192826200013f57600085556200018b565b82601f106200015a57805160ff19168380011785556200018b565b828001600101855582156200018b579182015b828111156200018a5782518255916020019190600101906200016d565b5b5090506200019a91906200019e565b5090565b5b80821115620001b95760008160009055506001016200019f565b5090565b60006002820490506001821680620001d657607f821691505b60208210811415620001ed57620001ec620001f3565b5b50919050565b7f4e487b7100000000000000000000000000000000000000000000000000000000600052602260045260246000fd5b612fe280620002326000396000f3fe608060405234801561001057600080fd5b50600436106101215760003560e01c80636352211e116100ad578063a22cb46511610071578063a22cb4651461032e578063b88d4fde1461034a578063c87b56dd14610366578063e985e9c514610396578063f851a440146103c657610121565b80636352211e146102765780636a627842146102a657806370a08231146102c257806375794a3c146102f257806395d89b411461031057610121565b806318160ddd116100f457806318160ddd146101c057806323b872dd146101de5780632f745c59146101fa57806342842e0e1461022a5780634f6ccce71461024657610121565b806301ffc9a71461012657806306fdde0314610156578063081812fc14610174578063095ea7b3146101a4575b600080fd5b610140600480360381019061013b9190612146565b6103e4565b60405161014d919061294a565b60405180910390f35b61015e61045e565b60405161016b9190612965565b60405180910390f35b61018e60048036038101906101899190612198565b6104f0565b60405161019b91906128e3565b60405180910390f35b6101be60048036038101906101b9919061210a565b610575565b005b6101c861068d565b6040516101d59190612ba7565b60405180910390f35b6101f860048036038101906101f39190612004565b61069a565b005b610214600480360381019061020f919061210a565b6106fa565b6040516102219190612ba7565b60405180910390f35b610244600480360381019061023f9190612004565b61079f565b005b610260600480360381019061025b9190612198565b6107bf565b60405161026d9190612ba7565b60405180910390f35b610290600480360381019061028b9190612198565b610856565b60405161029d91906128e3565b60405180910390f35b6102c060048036038101906102bb9190611f9f565b610908565b005b6102dc60048036038101906102d79190611f9f565b6109bf565b6040516102e99190612ba7565b60405180910390f35b6102fa610a77565b6040516103079190612ba7565b60405180910390f35b610318610a7d565b6040516103259190612965565b60405180910390f35b610348600480360381019061034391906120ce565b610b0f565b005b610364600480360381019061035f9190612053565b610c90565b005b610380600480360381019061037b9190612198565b610cf2565b60405161038d9190612965565b60405180910390f35b6103b060048036038101906103ab9190611fc8565b610d99565b6040516103bd919061294a565b60405180910390f35b6103ce610e2d565b6040516103db91906128e3565b60405180910390f35b60007f780e9d63000000000000000000000000000000000000000000000000000000007bffffffffffffffffffffffffffffffffffffffffffffffffffffffff1916827bffffffffffffffffffffffffffffffffffffffffffffffffffffffff19161480610457575061045682610e53565b5b9050919050565b60606000805461046d90612dd7565b80601f016020809104026020016040519081016040528092919081815260200182805461049990612dd7565b80156104e65780601f106104bb576101008083540402835291602001916104e6565b820191906000526020600020905b8154815290600101906020018083116104c957829003601f168201915b5050505050905090565b60006104fb82610f35565b61053a576040517f08c379a000000000000000000000000000000000000000000000000000000000815260040161053190612ae7565b60405180910390fd5b6004600083815260200190815260200160002060009054906101000a900473ffffffffffffffffffffffffffffffffffffffff169050919050565b600061058082610856565b90508073ffffffffffffffffffffffffffffffffffffffff168373ffffffffffffffffffffffffffffffffffffffff1614156105f1576040517f08c379a00000000000000000000000000000000000000000000000000000000081526004016105e890612b47565b60405180910390fd5b8073ffffffffffffffffffffffffffffffffffffffff16610610610fa1565b73ffffffffffffffffffffffffffffffffffffffff16148061063f575061063e81610639610fa1565b610d99565b5b61067e576040517f08c379a000000000000000000000000000000000000000000000000000000000815260040161067590612a67565b60405180910390fd5b6106888383610fa9565b505050565b6000600880549050905090565b6106ab6106a5610fa1565b82611062565b6106ea576040517f08c379a00000000000000000000000000000000000000000000000000000000081526004016106e190612b67565b60405180910390fd5b6106f5838383611140565b505050565b6000610705836109bf565b8210610746576040517f08c379a000000000000000000000000000000000000000000000000000000000815260040161073d90612987565b60405180910390fd5b600660008473ffffffffffffffffffffffffffffffffffffffff1673ffffffffffffffffffffffffffffffffffffffff168152602001908152602001600020600083815260200190815260200160002054905092915050565b6107ba83838360405180602001604052806000815250610c90565b505050565b60006107c961068d565b821061080a576040517f08c379a000000000000000000000000000000000000000000000000000000000815260040161080190612b87565b60405180910390fd5b60088281548110610844577f4e487b7100000000000000000000000000000000000000000000000000000000600052603260045260246000fd5b90600052602060002001549050919050565b6000806002600084815260200190815260200160002060009054906101000a900473ffffffffffffffffffffffffffffffffffffffff169050600073ffffffffffffffffffffffffffffffffffffffff168173ffffffffffffffffffffffffffffffffffffffff1614156108ff576040517f08c379a00000000000000000000000000000000000000000000000000000000081526004016108f690612aa7565b60405180910390fd5b80915050919050565b600b60009054906101000a900473ffffffffffffffffffffffffffffffffffffffff1673ffffffffffffffffffffffffffffffffffffffff163373ffffffffffffffffffffffffffffffffffffffff1614610998576040517f08c379a000000000000000000000000000000000000000000000000000000000815260040161098f90612a27565b60405180910390fd5b6109a481600a5461139c565b600a60008154809291906109b790612e09565b919050555050565b60008073ffffffffffffffffffffffffffffffffffffffff168273ffffffffffffffffffffffffffffffffffffffff161415610a30576040517f08c379a0000000000000000000000000000000000000000000000000000000008152600401610a2790612a87565b60405180910390fd5b600360008373ffffffffffffffffffffffffffffffffffffffff1673ffffffffffffffffffffffffffffffffffffffff168152602001908152602001600020549050919050565b600a5481565b606060018054610a8c90612dd7565b80601f0160208091040260200160405190810160405280929190818152602001828054610ab890612dd7565b8015610b055780601f10610ada57610100808354040283529160200191610b05565b820191906000526020600020905b815481529060010190602001808311610ae857829003601f168201915b5050505050905090565b610b17610fa1565b73ffffffffffffffffffffffffffffffffffffffff168273ffffffffffffffffffffffffffffffffffffffff161415610b85576040517f08c379a0000000000000000000000000000000000000000000000000000000008152600401610b7c90612a07565b60405180910390fd5b8060056000610b92610fa1565b73ffffffffffffffffffffffffffffffffffffffff1673ffffffffffffffffffffffffffffffffffffffff16815260200190815260200160002060008473ffffffffffffffffffffffffffffffffffffffff1673ffffffffffffffffffffffffffffffffffffffff16815260200190815260200160002060006101000a81548160ff0219169083151502179055508173ffffffffffffffffffffffffffffffffffffffff16610c3f610fa1565b73ffffffffffffffffffffffffffffffffffffffff167f17307eab39ab6107e8899845ad3d59bd9653f200f220920489ca2b5937696c3183604051610c84919061294a565b60405180910390a35050565b610ca1610c9b610fa1565b83611062565b610ce0576040517f08c379a0000000000000000000000000000000000000000000000000000000008152600401610cd790612b67565b60405180910390fd5b610cec848484846113ba565b50505050565b6060610cfd82610f35565b610d3c576040517f08c379a0000000000000000000000000000000000000000000000000000000008152600401610d3390612b27565b60405180910390fd5b6000610d46611416565b90506000815111610d665760405180602001604052806000815250610d91565b80610d7084611453565b604051602001610d819291906128bf565b6040516020818303038152906040525b915050919050565b6000600560008473ffffffffffffffffffffffffffffffffffffffff1673ffffffffffffffffffffffffffffffffffffffff16815260200190815260200160002060008373ffffffffffffffffffffffffffffffffffffffff1673ffffffffffffffffffffffffffffffffffffffff16815260200190815260200160002060009054906101000a900460ff16905092915050565b600b60009054906101000a900473ffffffffffffffffffffffffffffffffffffffff1681565b60007f80ac58cd000000000000000000000000000000000000000000000000000000007bffffffffffffffffffffffffffffffffffffffffffffffffffffffff1916827bffffffffffffffffffffffffffffffffffffffffffffffffffffffff19161480610f1e57507f5b5e139f000000000000000000000000000000000000000000000000000000007bffffffffffffffffffffffffffffffffffffffffffffffffffffffff1916827bffffffffffffffffffffffffffffffffffffffffffffffffffffffff1916145b80610f2e5750610f2d82611600565b5b9050919050565b60008073ffffffffffffffffffffffffffffffffffffffff166002600084815260200190815260200160002060009054906101000a900473ffffffffffffffffffffffffffffffffffffffff1673ffffffffffffffffffffffffffffffffffffffff1614159050919050565b600033905090565b816004600083815260200190815260200160002060006101000a81548173ffffffffffffffffffffffffffffffffffffffff021916908373ffffffffffffffffffffffffffffffffffffffff160217905550808273ffffffffffffffffffffffffffffffffffffffff1661101c83610856565b73ffffffffffffffffffffffffffffffffffffffff167f8c5be1e5ebec7d5bd14f71427d1e84f3dd0314c0f7b2291e5b200ac8c7c3b92560405160405180910390a45050565b600061106d82610f35565b6110ac576040517f08c379a00000000000000000000000000000000000000000000000000000000081526004016110a390612a47565b60405180910390fd5b60006110b783610856565b90508073ffffffffffffffffffffffffffffffffffffffff168473ffffffffffffffffffffffffffffffffffffffff16148061112657508373ffffffffffffffffffffffffffffffffffffffff1661110e846104f0565b73ffffffffffffffffffffffffffffffffffffffff16145b8061113757506111368185610d99565b5b91505092915050565b8273ffffffffffffffffffffffffffffffffffffffff1661116082610856565b73ffffffffffffffffffffffffffffffffffffffff16146111b6576040517f08c379a00000000000000000000000000000000000000000000000000000000081526004016111ad90612b07565b60405180910390fd5b600073ffffffffffffffffffffffffffffffffffffffff168273ffffffffffffffffffffffffffffffffffffffff161415611226576040517f08c379a000000000000000000000000000000000000000000000000000000000815260040161121d906129e7565b60405180910390fd5b61123183838361166a565b61123c600082610fa9565b6001600360008573ffffffffffffffffffffffffffffffffffffffff1673ffffffffffffffffffffffffffffffffffffffff168152602001908152602001600020600082825461128c9190612ced565b925050819055506001600360008473ffffffffffffffffffffffffffffffffffffffff1673ffffffffffffffffffffffffffffffffffffffff16815260200190815260200160002060008282546112e39190612c66565b92505081905550816002600083815260200190815260200160002060006101000a81548173ffffffffffffffffffffffffffffffffffffffff021916908373ffffffffffffffffffffffffffffffffffffffff160217905550808273ffffffffffffffffffffffffffffffffffffffff168473ffffffffffffffffffffffffffffffffffffffff167fddf252ad1be2c89b69c2b068fc378daa952ba7f163c4a11628f55a4df523b3ef60405160405180910390a4505050565b6113b682826040518060200160405280600081525061177e565b5050565b6113c5848484611140565b6113d1848484846117d9565b611410576040517f08c379a0000000000000000000000000000000000000000000000000000000008152600401611407906129a7565b60405180910390fd5b50505050565b60606040518060400160405280601681526020017f687474703a2f2f6c6f63616c686f73743a383030302f00000000000000000000815250905090565b6060600082141561149b576040518060400160405280600181526020017f300000000000000000000000000000000000000000000000000000000000000081525090506115fb565b600082905060005b600082146114cd5780806114b690612e09565b915050600a826114c69190612cbc565b91506114a3565b60008167ffffffffffffffff81111561150f577f4e487b7100000000000000000000000000000000000000000000000000000000600052604160045260246000fd5b6040519080825280601f01601f1916602001820160405280156115415781602001600182028036833780820191505090505b5090505b600085146115f45760018261155a9190612ced565b9150600a856115699190612e52565b60306115759190612c66565b60f81b8183815181106115b1577f4e487b7100000000000000000000000000000000000000000000000000000000600052603260045260246000fd5b60200101907effffffffffffffffffffffffffffffffffffffffffffffffffffffffffffff1916908160001a905350600a856115ed9190612cbc565b9450611545565b8093505050505b919050565b60007f01ffc9a7000000000000000000000000000000000000000000000000000000007bffffffffffffffffffffffffffffffffffffffffffffffffffffffff1916827bffffffffffffffffffffffffffffffffffffffffffffffffffffffff1916149050919050565b611675838383611970565b600073ffffffffffffffffffffffffffffffffffffffff168373ffffffffffffffffffffffffffffffffffffffff1614156116b8576116b381611975565b6116f7565b8173ffffffffffffffffffffffffffffffffffffffff168373ffffffffffffffffffffffffffffffffffffffff16146116f6576116f583826119be565b5b5b600073ffffffffffffffffffffffffffffffffffffffff168273ffffffffffffffffffffffffffffffffffffffff16141561173a5761173581611b2b565b611779565b8273ffffffffffffffffffffffffffffffffffffffff168273ffffffffffffffffffffffffffffffffffffffff1614611778576117778282611c6e565b5b5b505050565b6117888383611ced565b61179560008484846117d9565b6117d4576040517f08c379a00000000000000000000000000000000000000000000000000000000081526004016117cb906129a7565b60405180910390fd5b505050565b60006117fa8473ffffffffffffffffffffffffffffffffffffffff16611ebb565b15611963578373ffffffffffffffffffffffffffffffffffffffff1663150b7a02611823610fa1565b8786866040518563ffffffff1660e01b815260040161184594939291906128fe565b602060405180830381600087803b15801561185f57600080fd5b505af192505050801561189057506040513d601f19601f8201168201806040525081019061188d919061216f565b60015b611913573d80600081146118c0576040519150601f19603f3d011682016040523d82523d6000602084013e6118c5565b606091505b5060008151141561190b576040517f08c379a0000000000000000000000000000000000000000000000000000000008152600401611902906129a7565b60405180910390fd5b805181602001fd5b63150b7a0260e01b7bffffffffffffffffffffffffffffffffffffffffffffffffffffffff1916817bffffffffffffffffffffffffffffffffffffffffffffffffffffffff191614915050611968565b600190505b949350505050565b505050565b6008805490506009600083815260200190815260200160002081905550600881908060018154018082558091505060019003906000526020600020016000909190919091505550565b600060016119cb846109bf565b6119d59190612ced565b9050600060076000848152602001908152602001600020549050818114611aba576000600660008673ffffffffffffffffffffffffffffffffffffffff1673ffffffffffffffffffffffffffffffffffffffff168152602001908152602001600020600084815260200190815260200160002054905080600660008773ffffffffffffffffffffffffffffffffffffffff1673ffffffffffffffffffffffffffffffffffffffff168152602001908152602001600020600084815260200190815260200160002081905550816007600083815260200190815260200160002081905550505b6007600084815260200190815260200160002060009055600660008573ffffffffffffffffffffffffffffffffffffffff1673ffffffffffffffffffffffffffffffffffffffff16815260200190815260200160002060008381526020019081526020016000206000905550505050565b60006001600880549050611b3f9190612ced565b9050600060096000848152602001908152602001600020549050600060088381548110611b95577f4e487b7100000000000000000000000000000000000000000000000000000000600052603260045260246000fd5b906000526020600020015490508060088381548110611bdd577f4e487b7100000000000000000000000000000000000000000000000000000000600052603260045260246000fd5b906000526020600020018190555081600960008381526020019081526020016000208190555060096000858152602001908152602001600020600090556008805480611c52577f4e487b7100000000000000000000000000000000000000000000000000000000600052603160045260246000fd5b6001900381819060005260206000200160009055905550505050565b6000611c79836109bf565b905081600660008573ffffffffffffffffffffffffffffffffffffffff1673ffffffffffffffffffffffffffffffffffffffff168152602001908152602001600020600083815260200190815260200160002081905550806007600084815260200190815260200160002081905550505050565b600073ffffffffffffffffffffffffffffffffffffffff168273ffffffffffffffffffffffffffffffffffffffff161415611d5d576040517f08c379a0000000000000000000000000000000000000000000000000000000008152600401611d5490612ac7565b60405180910390fd5b611d6681610f35565b15611da6576040517f08c379a0000000000000000000000000000000000000000000000000000000008152600401611d9d906129c7565b60405180910390fd5b611db26000838361166a565b6001600360008473ffffffffffffffffffffffffffffffffffffffff1673ffffffffffffffffffffffffffffffffffffffff1681526020019081526020016000206000828254611e029190612c66565b92505081905550816002600083815260200190815260200160002060006101000a81548173ffffffffffffffffffffffffffffffffffffffff021916908373ffffffffffffffffffffffffffffffffffffffff160217905550808273ffffffffffffffffffffffffffffffffffffffff16600073ffffffffffffffffffffffffffffffffffffffff167fddf252ad1be2c89b69c2b068fc378daa952ba7f163c4a11628f55a4df523b3ef60405160405180910390a45050565b600080823b905060008111915050919050565b6000611ee1611edc84612bf3565b612bc2565b905082815260208101848484011115611ef957600080fd5b611f04848285612d95565b509392505050565b600081359050611f1b81612f50565b92915050565b600081359050611f3081612f67565b92915050565b600081359050611f4581612f7e565b92915050565b600081519050611f5a81612f7e565b92915050565b600082601f830112611f7157600080fd5b8135611f81848260208601611ece565b91505092915050565b600081359050611f9981612f95565b92915050565b600060208284031215611fb157600080fd5b6000611fbf84828501611f0c565b91505092915050565b60008060408385031215611fdb57600080fd5b6000611fe985828601611f0c565b9250506020611ffa85828601611f0c565b9150509250929050565b60008060006060848603121561201957600080fd5b600061202786828701611f0c565b935050602061203886828701611f0c565b925050604061204986828701611f8a565b9150509250925092565b6000806000806080858703121561206957600080fd5b600061207787828801611f0c565b945050602061208887828801611f0c565b935050604061209987828801611f8a565b925050606085013567ffffffffffffffff8111156120b657600080fd5b6120c287828801611f60565b91505092959194509250565b600080604083850312156120e157600080fd5b60006120ef85828601611f0c565b925050602061210085828601611f21565b9150509250929050565b6000806040838503121561211d57600080fd5b600061212b85828601611f0c565b925050602061213c85828601611f8a565b9150509250929050565b60006020828403121561215857600080fd5b600061216684828501611f36565b91505092915050565b60006020828403121561218157600080fd5b600061218f84828501611f4b565b91505092915050565b6000602082840312156121aa57600080fd5b60006121b884828501611f8a565b91505092915050565b6121ca81612d21565b82525050565b6121d981612d33565b82525050565b60006121ea82612c23565b6121f48185612c39565b9350612204818560208601612da4565b61220d81612f3f565b840191505092915050565b600061222382612c2e565b61222d8185612c4a565b935061223d818560208601612da4565b61224681612f3f565b840191505092915050565b600061225c82612c2e565b6122668185612c5b565b9350612276818560208601612da4565b80840191505092915050565b600061228f602b83612c4a565b91507f455243373231456e756d657261626c653a206f776e657220696e646578206f7560008301527f74206f6620626f756e64730000000000000000000000000000000000000000006020830152604082019050919050565b60006122f5603283612c4a565b91507f4552433732313a207472616e7366657220746f206e6f6e20455243373231526560008301527f63656976657220696d706c656d656e74657200000000000000000000000000006020830152604082019050919050565b600061235b601c83612c4a565b91507f4552433732313a20746f6b656e20616c7265616479206d696e746564000000006000830152602082019050919050565b600061239b602483612c4a565b91507f4552433732313a207472616e7366657220746f20746865207a65726f2061646460008301527f72657373000000000000000000000000000000000000000000000000000000006020830152604082019050919050565b6000612401601983612c4a565b91507f4552433732313a20617070726f766520746f2063616c6c6572000000000000006000830152602082019050919050565b6000612441600a83612c4a565b91507f6f6e6c792061646d696e000000000000000000000000000000000000000000006000830152602082019050919050565b6000612481602c83612c4a565b91507f4552433732313a206f70657261746f7220717565727920666f72206e6f6e657860008301527f697374656e7420746f6b656e00000000000000000000000000000000000000006020830152604082019050919050565b60006124e7603883612c4a565b91507f4552433732313a20617070726f76652063616c6c6572206973206e6f74206f7760008301527f6e6572206e6f7220617070726f76656420666f7220616c6c00000000000000006020830152604082019050919050565b600061254d602a83612c4a565b91507f4552433732313a2062616c616e636520717565727920666f7220746865207a6560008301527f726f2061646472657373000000000000000000000000000000000000000000006020830152604082019050919050565b60006125b3602983612c4a565b91507f4552433732313a206f776e657220717565727920666f72206e6f6e657869737460008301527f656e7420746f6b656e00000000000000000000000000000000000000000000006020830152604082019050919050565b6000612619602083612c4a565b91507f4552433732313a206d696e7420746f20746865207a65726f20616464726573736000830152602082019050919050565b6000612659602c83612c4a565b91507f4552433732313a20617070726f76656420717565727920666f72206e6f6e657860008301527f697374656e7420746f6b656e00000000000000000000000000000000000000006020830152604082019050919050565b60006126bf602983612c4a565b91507f4552433732313a207472616e73666572206f6620746f6b656e2074686174206960008301527f73206e6f74206f776e00000000000000000000000000000000000000000000006020830152604082019050919050565b6000612725602f83612c4a565b91507f4552433732314d657461646174613a2055524920717565727920666f72206e6f60008301527f6e6578697374656e7420746f6b656e00000000000000000000000000000000006020830152604082019050919050565b600061278b602183612c4a565b91507f4552433732313a20617070726f76616c20746f2063757272656e74206f776e6560008301527f72000000000000000000000000000000000000000000000000000000000000006020830152604082019050919050565b60006127f1603183612c4a565b91507f4552433732313a207472616e736665722063616c6c6572206973206e6f74206f60008301527f776e6572206e6f7220617070726f7665640000000000000000000000000000006020830152604082019050919050565b6000612857602c83612c4a565b91507f455243373231456e756d657261626c653a20676c6f62616c20696e646578206f60008301527f7574206f6620626f756e647300000000000000000000000000000000000000006020830152604082019050919050565b6128b981612d8b565b82525050565b60006128cb8285612251565b91506128d78284612251565b91508190509392505050565b60006020820190506128f860008301846121c1565b92915050565b600060808201905061291360008301876121c1565b61292060208301866121c1565b61292d60408301856128b0565b818103606083015261293f81846121df565b905095945050505050565b600060208201905061295f60008301846121d0565b92915050565b6000602082019050818103600083015261297f8184612218565b905092915050565b600060208201905081810360008301526129a081612282565b9050919050565b600060208201905081810360008301526129c0816122e8565b9050919050565b600060208201905081810360008301526129e08161234e565b9050919050565b60006020820190508181036000830152612a008161238e565b9050919050565b60006020820190508181036000830152612a20816123f4565b9050919050565b60006020820190508181036000830152612a4081612434565b9050919050565b60006020820190508181036000830152612a6081612474565b9050919050565b60006020820190508181036000830152612a80816124da565b9050919050565b60006020820190508181036000830152612aa081612540565b9050919050565b60006020820190508181036000830152612ac0816125a6565b9050919050565b60006020820190508181036000830152612ae08161260c565b9050919050565b60006020820190508181036000830152612b008161264c565b9050919050565b60006020820190508181036000830152612b20816126b2565b9050919050565b60006020820190508181036000830152612b4081612718565b9050919050565b60006020820190508181036000830152612b608161277e565b9050919050565b60006020820190508181036000830152612b80816127e4565b9050919050565b60006020820190508181036000830152612ba08161284a565b9050919050565b6000602082019050612bbc60008301846128b0565b92915050565b6000604051905081810181811067ffffffffffffffff82111715612be957612be8612f10565b5b8060405250919050565b600067ffffffffffffffff821115612c0e57612c0d612f10565b5b601f19601f8301169050602081019050919050565b600081519050919050565b600081519050919050565b600082825260208201905092915050565b600082825260208201905092915050565b600081905092915050565b6000612c7182612d8b565b9150612c7c83612d8b565b9250827fffffffffffffffffffffffffffffffffffffffffffffffffffffffffffffffff03821115612cb157612cb0612e83565b5b828201905092915050565b6000612cc782612d8b565b9150612cd283612d8b565b925082612ce257612ce1612eb2565b5b828204905092915050565b6000612cf882612d8b565b9150612d0383612d8b565b925082821015612d1657612d15612e83565b5b828203905092915050565b6000612d2c82612d6b565b9050919050565b60008115159050919050565b60007fffffffff0000000000000000000000000000000000000000000000000000000082169050919050565b600073ffffffffffffffffffffffffffffffffffffffff82169050919050565b6000819050919050565b82818337600083830152505050565b60005b83811015612dc2578082015181840152602081019050612da7565b83811115612dd1576000848401525b50505050565b60006002820490506001821680612def57607f821691505b60208210811415612e0357612e02612ee1565b5b50919050565b6000612e1482612d8b565b91507fffffffffffffffffffffffffffffffffffffffffffffffffffffffffffffffff821415612e4757612e46612e83565b5b600182019050919050565b6000612e5d82612d8b565b9150612e6883612d8b565b925082612e7857612e77612eb2565b5b828206905092915050565b7f4e487b7100000000000000000000000000000000000000000000000000000000600052601160045260246000fd5b7f4e487b7100000000000000000000000000000000000000000000000000000000600052601260045260246000fd5b7f4e487b7100000000000000000000000000000000000000000000000000000000600052602260045260246000fd5b7f4e487b7100000000000000000000000000000000000000000000000000000000600052604160045260246000fd5b6000601f19601f8301169050919050565b612f5981612d21565b8114612f6457600080fd5b50565b612f7081612d33565b8114612f7b57600080fd5b50565b612f8781612d3f565b8114612f9257600080fd5b50565b612f9e81612d8b565b8114612fa957600080fd5b5056fea2646970667358221220bcf23cf38bd45df9c3eb00149fc72bdb599a3b0a698173b72b164fba17eeb04464736f6c63430008000033",
  "immutableReferences": {},
  "source": "// SPDX-License-Identifier: MIT\r\npragma solidity ^0.8.0;\r\n\r\nimport \"@openzeppelin/contracts/token/ERC721/extensions/ERC721Enumerable.sol\";\r\n\r\ncontract NFT is ERC721Enumerable  {\r\n    uint public nextTokenId;\r\n    address public admin;\r\n\r\n    constructor() ERC721(\"Elements NFT\", \"ELM\") {\r\n        admin = 0x5fd399F8206B74753f82e70AD64E42FD26fe84C5; //First account adress of ganache\r\n    }\r\n\r\n    function mint(address to) external{\r\n        require(msg.sender == admin, \"only admin\");\r\n        _safeMint(to, nextTokenId);\r\n        nextTokenId++;\r\n    }\r\n\r\n    function _baseURI() internal view virtual override returns (string memory) {\r\n        return \"http://localhost:8000/\";\r\n    }\r\n}\r\n",
  "sourcePath": "D:/blockChainGames/testGame/smartContract/contracts/NFT.sol",
  "compiler": {
    "name": "solc",
    "version": "0.8.0+commit.c7dfd78e.Emscripten.clang"
  },
  "schemaVersion": "3.4.1",
  "updatedAt": "2021-07-11T16:49:48.551Z",
  "networkType": "ethereum",
  "devdoc": {
    "kind": "dev",
    "methods": {
      "approve(address,uint256)": {
        "details": "See {IERC721-approve}."
      },
      "balanceOf(address)": {
        "details": "See {IERC721-balanceOf}."
      },
      "getApproved(uint256)": {
        "details": "See {IERC721-getApproved}."
      },
      "isApprovedForAll(address,address)": {
        "details": "See {IERC721-isApprovedForAll}."
      },
      "name()": {
        "details": "See {IERC721Metadata-name}."
      },
      "ownerOf(uint256)": {
        "details": "See {IERC721-ownerOf}."
      },
      "safeTransferFrom(address,address,uint256)": {
        "details": "See {IERC721-safeTransferFrom}."
      },
      "safeTransferFrom(address,address,uint256,bytes)": {
        "details": "See {IERC721-safeTransferFrom}."
      },
      "setApprovalForAll(address,bool)": {
        "details": "See {IERC721-setApprovalForAll}."
      },
      "supportsInterface(bytes4)": {
        "details": "See {IERC165-supportsInterface}."
      },
      "symbol()": {
        "details": "See {IERC721Metadata-symbol}."
      },
      "tokenByIndex(uint256)": {
        "details": "See {IERC721Enumerable-tokenByIndex}."
      },
      "tokenOfOwnerByIndex(address,uint256)": {
        "details": "See {IERC721Enumerable-tokenOfOwnerByIndex}."
      },
      "tokenURI(uint256)": {
        "details": "See {IERC721Metadata-tokenURI}."
      },
      "totalSupply()": {
        "details": "See {IERC721Enumerable-totalSupply}."
      },
      "transferFrom(address,address,uint256)": {
        "details": "See {IERC721-transferFrom}."
      }
    },
    "version": 1
  },
  "userdoc": {
    "kind": "user",
    "methods": {},
    "version": 1
  }
}