{
  "contractName": "NFT",
  "abi": [
    {
      "inputs": [],
      "stateMutability": "nonpayable",
      "type": "constructor"
    },
    {
      "anonymous": false,
      "inputs": [
        {
          "indexed": true,
          "internalType": "address",
          "name": "owner",
          "type": "address"
        },
        {
          "indexed": true,
          "internalType": "address",
          "name": "approved",
          "type": "address"
        },
        {
          "indexed": true,
          "internalType": "uint256",
          "name": "tokenId",
          "type": "uint256"
        }
      ],
      "name": "Approval",
      "type": "event"
    },
    {
      "anonymous": false,
      "inputs": [
        {
          "indexed": true,
          "internalType": "address",
          "name": "owner",
          "type": "address"
        },
        {
          "indexed": true,
          "internalType": "address",
          "name": "operator",
          "type": "address"
        },
        {
          "indexed": false,
          "internalType": "bool",
          "name": "approved",
          "type": "bool"
        }
      ],
      "name": "ApprovalForAll",
      "type": "event"
    },
    {
      "anonymous": false,
      "inputs": [
        {
          "indexed": true,
          "internalType": "address",
          "name": "from",
          "type": "address"
        },
        {
          "indexed": true,
          "internalType": "address",
          "name": "to",
          "type": "address"
        },
        {
          "indexed": true,
          "internalType": "uint256",
          "name": "tokenId",
          "type": "uint256"
        }
      ],
      "name": "Transfer",
      "type": "event"
    },
    {
      "inputs": [
        {
          "internalType": "address",
          "name": "to",
          "type": "address"
        },
        {
          "internalType": "uint256",
          "name": "tokenId",
          "type": "uint256"
        }
      ],
      "name": "approve",
      "outputs": [],
      "stateMutability": "nonpayable",
      "type": "function"
    },
    {
      "inputs": [
        {
          "internalType": "address",
          "name": "owner",
          "type": "address"
        }
      ],
      "name": "balanceOf",
      "outputs": [
        {
          "internalType": "uint256",
          "name": "",
          "type": "uint256"
        }
      ],
      "stateMutability": "view",
      "type": "function",
      "constant": true
    },
    {
      "inputs": [
        {
          "internalType": "uint256",
          "name": "tokenId",
          "type": "uint256"
        }
      ],
      "name": "getApproved",
      "outputs": [
        {
          "internalType": "address",
          "name": "",
          "type": "address"
        }
      ],
      "stateMutability": "view",
      "type": "function",
      "constant": true
    },
    {
      "inputs": [
        {
          "internalType": "address",
          "name": "owner",
          "type": "address"
        },
        {
          "internalType": "address",
          "name": "operator",
          "type": "address"
        }
      ],
      "name": "isApprovedForAll",
      "outputs": [
        {
          "internalType": "bool",
          "name": "",
          "type": "bool"
        }
      ],
      "stateMutability": "view",
      "type": "function",
      "constant": true
    },
    {
      "inputs": [],
      "name": "name",
      "outputs": [
        {
          "internalType": "string",
          "name": "",
          "type": "string"
        }
      ],
      "stateMutability": "view",
      "type": "function",
      "constant": true
    },
    {
      "inputs": [],
      "name": "owner",
      "outputs": [
        {
          "internalType": "address",
          "name": "",
          "type": "address"
        }
      ],
      "stateMutability": "view",
      "type": "function",
      "constant": true
    },
    {
      "inputs": [
        {
          "internalType": "uint256",
          "name": "tokenId",
          "type": "uint256"
        }
      ],
      "name": "ownerOf",
      "outputs": [
        {
          "internalType": "address",
          "name": "",
          "type": "address"
        }
      ],
      "stateMutability": "view",
      "type": "function",
      "constant": true
    },
    {
      "inputs": [
        {
          "internalType": "address",
          "name": "from",
          "type": "address"
        },
        {
          "internalType": "address",
          "name": "to",
          "type": "address"
        },
        {
          "internalType": "uint256",
          "name": "tokenId",
          "type": "uint256"
        }
      ],
      "name": "safeTransferFrom",
      "outputs": [],
      "stateMutability": "nonpayable",
      "type": "function"
    },
    {
      "inputs": [
        {
          "internalType": "address",
          "name": "from",
          "type": "address"
        },
        {
          "internalType": "address",
          "name": "to",
          "type": "address"
        },
        {
          "internalType": "uint256",
          "name": "tokenId",
          "type": "uint256"
        },
        {
          "internalType": "bytes",
          "name": "_data",
          "type": "bytes"
        }
      ],
      "name": "safeTransferFrom",
      "outputs": [],
      "stateMutability": "nonpayable",
      "type": "function"
    },
    {
      "inputs": [
        {
          "internalType": "address",
          "name": "operator",
          "type": "address"
        },
        {
          "internalType": "bool",
          "name": "approved",
          "type": "bool"
        }
      ],
      "name": "setApprovalForAll",
      "outputs": [],
      "stateMutability": "nonpayable",
      "type": "function"
    },
    {
      "inputs": [
        {
          "internalType": "bytes4",
          "name": "interfaceId",
          "type": "bytes4"
        }
      ],
      "name": "supportsInterface",
      "outputs": [
        {
          "internalType": "bool",
          "name": "",
          "type": "bool"
        }
      ],
      "stateMutability": "view",
      "type": "function",
      "constant": true
    },
    {
      "inputs": [],
      "name": "symbol",
      "outputs": [
        {
          "internalType": "string",
          "name": "",
          "type": "string"
        }
      ],
      "stateMutability": "view",
      "type": "function",
      "constant": true
    },
    {
      "inputs": [
        {
          "internalType": "uint256",
          "name": "index",
          "type": "uint256"
        }
      ],
      "name": "tokenByIndex",
      "outputs": [
        {
          "internalType": "uint256",
          "name": "",
          "type": "uint256"
        }
      ],
      "stateMutability": "view",
      "type": "function",
      "constant": true
    },
    {
      "inputs": [
        {
          "internalType": "address",
          "name": "owner",
          "type": "address"
        },
        {
          "internalType": "uint256",
          "name": "index",
          "type": "uint256"
        }
      ],
      "name": "tokenOfOwnerByIndex",
      "outputs": [
        {
          "internalType": "uint256",
          "name": "",
          "type": "uint256"
        }
      ],
      "stateMutability": "view",
      "type": "function",
      "constant": true
    },
    {
      "inputs": [],
      "name": "totalSupply",
      "outputs": [
        {
          "internalType": "uint256",
          "name": "",
          "type": "uint256"
        }
      ],
      "stateMutability": "view",
      "type": "function",
      "constant": true
    },
    {
      "inputs": [
        {
          "internalType": "address",
          "name": "from",
          "type": "address"
        },
        {
          "internalType": "address",
          "name": "to",
          "type": "address"
        },
        {
          "internalType": "uint256",
          "name": "tokenId",
          "type": "uint256"
        }
      ],
      "name": "transferFrom",
      "outputs": [],
      "stateMutability": "nonpayable",
      "type": "function"
    },
    {
      "inputs": [
        {
          "internalType": "address",
          "name": "to",
          "type": "address"
        },
        {
          "internalType": "string",
          "name": "uri",
          "type": "string"
        }
      ],
      "name": "mint",
      "outputs": [
        {
          "internalType": "uint256",
          "name": "",
          "type": "uint256"
        }
      ],
      "stateMutability": "nonpayable",
      "type": "function"
    },
    {
      "inputs": [
        {
          "internalType": "uint256",
          "name": "tokenId",
          "type": "uint256"
        }
      ],
      "name": "tokenURI",
      "outputs": [
        {
          "internalType": "string",
          "name": "",
          "type": "string"
        }
      ],
      "stateMutability": "view",
      "type": "function",
      "constant": true
    }
  ],
  "bytecode": "0x608060405233600d60006101000a81548173ffffffffffffffffffffffffffffffffffffffff021916908373ffffffffffffffffffffffffffffffffffffffff1602179055503480156200005257600080fd5b506040518060400160405280600c81526020017f456c656d656e7473204e465400000000000000000000000000000000000000008152506040518060400160405280600381526020017f454c4d00000000000000000000000000000000000000000000000000000000008152508160009080519060200190620000d79291906200013a565b508060019080519060200190620000f09291906200013a565b50505033600d60006101000a81548173ffffffffffffffffffffffffffffffffffffffff021916908373ffffffffffffffffffffffffffffffffffffffff1602179055506200024f565b8280546200014890620001ea565b90600052602060002090601f0160209004810192826200016c5760008555620001b8565b82601f106200018757805160ff1916838001178555620001b8565b82800160010185558215620001b8579182015b82811115620001b75782518255916020019190600101906200019a565b5b509050620001c79190620001cb565b5090565b5b80821115620001e6576000816000905550600101620001cc565b5090565b600060028204905060018216806200020357607f821691505b602082108114156200021a576200021962000220565b5b50919050565b7f4e487b7100000000000000000000000000000000000000000000000000000000600052602260045260246000fd5b612fad806200025f6000396000f3fe608060405234801561001057600080fd5b50600436106101165760003560e01c80636352211e116100a2578063a22cb46511610071578063a22cb46514610307578063b88d4fde14610323578063c87b56dd1461033f578063d0def5211461036f578063e985e9c51461039f57610116565b80636352211e1461026b57806370a082311461029b5780638da5cb5b146102cb57806395d89b41146102e957610116565b806318160ddd116100e957806318160ddd146101b557806323b872dd146101d35780632f745c59146101ef57806342842e0e1461021f5780634f6ccce71461023b57610116565b806301ffc9a71461011b57806306fdde031461014b578063081812fc14610169578063095ea7b314610199575b600080fd5b61013560048036038101906101309190612195565b6103cf565b60405161014291906129aa565b60405180910390f35b610153610449565b60405161016091906129c5565b60405180910390f35b610183600480360381019061017e91906121e7565b6104db565b6040516101909190612943565b60405180910390f35b6101b360048036038101906101ae9190612159565b610560565b005b6101bd610678565b6040516101ca9190612c27565b60405180910390f35b6101ed60048036038101906101e89190611fff565b610685565b005b61020960048036038101906102049190612159565b6106e5565b6040516102169190612c27565b60405180910390f35b61023960048036038101906102349190611fff565b61078a565b005b610255600480360381019061025091906121e7565b6107aa565b6040516102629190612c27565b60405180910390f35b610285600480360381019061028091906121e7565b610841565b6040516102929190612943565b60405180910390f35b6102b560048036038101906102b09190611f9a565b6108f3565b6040516102c29190612c27565b60405180910390f35b6102d36109ab565b6040516102e09190612943565b60405180910390f35b6102f16109d1565b6040516102fe91906129c5565b60405180910390f35b610321600480360381019061031c91906120c9565b610a63565b005b61033d6004803603810190610338919061204e565b610be4565b005b610359600480360381019061035491906121e7565b610c46565b60405161036691906129c5565b60405180910390f35b61038960048036038101906103849190612105565b610d39565b6040516103969190612c27565b60405180910390f35b6103b960048036038101906103b49190611fc3565b610e01565b6040516103c691906129aa565b60405180910390f35b60007f780e9d63000000000000000000000000000000000000000000000000000000007bffffffffffffffffffffffffffffffffffffffffffffffffffffffff1916827bffffffffffffffffffffffffffffffffffffffffffffffffffffffff19161480610442575061044182610e95565b5b9050919050565b60606000805461045890612e4b565b80601f016020809104026020016040519081016040528092919081815260200182805461048490612e4b565b80156104d15780601f106104a6576101008083540402835291602001916104d1565b820191906000526020600020905b8154815290600101906020018083116104b457829003601f168201915b5050505050905090565b60006104e682610f77565b610525576040517f08c379a000000000000000000000000000000000000000000000000000000000815260040161051c90612b27565b60405180910390fd5b6004600083815260200190815260200160002060009054906101000a900473ffffffffffffffffffffffffffffffffffffffff169050919050565b600061056b82610841565b90508073ffffffffffffffffffffffffffffffffffffffff168373ffffffffffffffffffffffffffffffffffffffff1614156105dc576040517f08c379a00000000000000000000000000000000000000000000000000000000081526004016105d390612bc7565b60405180910390fd5b8073ffffffffffffffffffffffffffffffffffffffff166105fb610fe3565b73ffffffffffffffffffffffffffffffffffffffff16148061062a575061062981610624610fe3565b610e01565b5b610669576040517f08c379a000000000000000000000000000000000000000000000000000000000815260040161066090612aa7565b60405180910390fd5b6106738383610feb565b505050565b6000600880549050905090565b610696610690610fe3565b826110a4565b6106d5576040517f08c379a00000000000000000000000000000000000000000000000000000000081526004016106cc90612be7565b60405180910390fd5b6106e0838383611182565b505050565b60006106f0836108f3565b8210610731576040517f08c379a0000000000000000000000000000000000000000000000000000000008152600401610728906129e7565b60405180910390fd5b600660008473ffffffffffffffffffffffffffffffffffffffff1673ffffffffffffffffffffffffffffffffffffffff168152602001908152602001600020600083815260200190815260200160002054905092915050565b6107a583838360405180602001604052806000815250610be4565b505050565b60006107b4610678565b82106107f5576040517f08c379a00000000000000000000000000000000000000000000000000000000081526004016107ec90612c07565b60405180910390fd5b6008828154811061082f577f4e487b7100000000000000000000000000000000000000000000000000000000600052603260045260246000fd5b90600052602060002001549050919050565b6000806002600084815260200190815260200160002060009054906101000a900473ffffffffffffffffffffffffffffffffffffffff169050600073ffffffffffffffffffffffffffffffffffffffff168173ffffffffffffffffffffffffffffffffffffffff1614156108ea576040517f08c379a00000000000000000000000000000000000000000000000000000000081526004016108e190612ae7565b60405180910390fd5b80915050919050565b60008073ffffffffffffffffffffffffffffffffffffffff168273ffffffffffffffffffffffffffffffffffffffff161415610964576040517f08c379a000000000000000000000000000000000000000000000000000000000815260040161095b90612ac7565b60405180910390fd5b600360008373ffffffffffffffffffffffffffffffffffffffff1673ffffffffffffffffffffffffffffffffffffffff168152602001908152602001600020549050919050565b600d60009054906101000a900473ffffffffffffffffffffffffffffffffffffffff1681565b6060600180546109e090612e4b565b80601f0160208091040260200160405190810160405280929190818152602001828054610a0c90612e4b565b8015610a595780601f10610a2e57610100808354040283529160200191610a59565b820191906000526020600020905b815481529060010190602001808311610a3c57829003601f168201915b5050505050905090565b610a6b610fe3565b73ffffffffffffffffffffffffffffffffffffffff168273ffffffffffffffffffffffffffffffffffffffff161415610ad9576040517f08c379a0000000000000000000000000000000000000000000000000000000008152600401610ad090612a67565b60405180910390fd5b8060056000610ae6610fe3565b73ffffffffffffffffffffffffffffffffffffffff1673ffffffffffffffffffffffffffffffffffffffff16815260200190815260200160002060008473ffffffffffffffffffffffffffffffffffffffff1673ffffffffffffffffffffffffffffffffffffffff16815260200190815260200160002060006101000a81548160ff0219169083151502179055508173ffffffffffffffffffffffffffffffffffffffff16610b93610fe3565b73ffffffffffffffffffffffffffffffffffffffff167f17307eab39ab6107e8899845ad3d59bd9653f200f220920489ca2b5937696c3183604051610bd891906129aa565b60405180910390a35050565b610bf5610bef610fe3565b836110a4565b610c34576040517f08c379a0000000000000000000000000000000000000000000000000000000008152600401610c2b90612be7565b60405180910390fd5b610c40848484846113de565b50505050565b6060610c5182610f77565b610c90576040517f08c379a0000000000000000000000000000000000000000000000000000000008152600401610c8790612b87565b60405180910390fd5b6000600a60008481526020019081526020016000208054610cb090612e4b565b80601f0160208091040260200160405190810160405280929190818152602001828054610cdc90612e4b565b8015610d295780601f10610cfe57610100808354040283529160200191610d29565b820191906000526020600020905b815481529060010190602001808311610d0c57829003601f168201915b5050505050905080915050919050565b6000600d60009054906101000a900473ffffffffffffffffffffffffffffffffffffffff1673ffffffffffffffffffffffffffffffffffffffff163373ffffffffffffffffffffffffffffffffffffffff1614610dcb576040517f08c379a0000000000000000000000000000000000000000000000000000000008152600401610dc290612ba7565b60405180910390fd5b610dd5600b61143a565b6000610de1600b611450565b9050610ded848261145e565b610df7818461147c565b8091505092915050565b6000600560008473ffffffffffffffffffffffffffffffffffffffff1673ffffffffffffffffffffffffffffffffffffffff16815260200190815260200160002060008373ffffffffffffffffffffffffffffffffffffffff1673ffffffffffffffffffffffffffffffffffffffff16815260200190815260200160002060009054906101000a900460ff16905092915050565b60007f80ac58cd000000000000000000000000000000000000000000000000000000007bffffffffffffffffffffffffffffffffffffffffffffffffffffffff1916827bffffffffffffffffffffffffffffffffffffffffffffffffffffffff19161480610f6057507f5b5e139f000000000000000000000000000000000000000000000000000000007bffffffffffffffffffffffffffffffffffffffffffffffffffffffff1916827bffffffffffffffffffffffffffffffffffffffffffffffffffffffff1916145b80610f705750610f6f826114f0565b5b9050919050565b60008073ffffffffffffffffffffffffffffffffffffffff166002600084815260200190815260200160002060009054906101000a900473ffffffffffffffffffffffffffffffffffffffff1673ffffffffffffffffffffffffffffffffffffffff1614159050919050565b600033905090565b816004600083815260200190815260200160002060006101000a81548173ffffffffffffffffffffffffffffffffffffffff021916908373ffffffffffffffffffffffffffffffffffffffff160217905550808273ffffffffffffffffffffffffffffffffffffffff1661105e83610841565b73ffffffffffffffffffffffffffffffffffffffff167f8c5be1e5ebec7d5bd14f71427d1e84f3dd0314c0f7b2291e5b200ac8c7c3b92560405160405180910390a45050565b60006110af82610f77565b6110ee576040517f08c379a00000000000000000000000000000000000000000000000000000000081526004016110e590612a87565b60405180910390fd5b60006110f983610841565b90508073ffffffffffffffffffffffffffffffffffffffff168473ffffffffffffffffffffffffffffffffffffffff16148061116857508373ffffffffffffffffffffffffffffffffffffffff16611150846104db565b73ffffffffffffffffffffffffffffffffffffffff16145b8061117957506111788185610e01565b5b91505092915050565b8273ffffffffffffffffffffffffffffffffffffffff166111a282610841565b73ffffffffffffffffffffffffffffffffffffffff16146111f8576040517f08c379a00000000000000000000000000000000000000000000000000000000081526004016111ef90612b67565b60405180910390fd5b600073ffffffffffffffffffffffffffffffffffffffff168273ffffffffffffffffffffffffffffffffffffffff161415611268576040517f08c379a000000000000000000000000000000000000000000000000000000000815260040161125f90612a47565b60405180910390fd5b61127383838361155a565b61127e600082610feb565b6001600360008573ffffffffffffffffffffffffffffffffffffffff1673ffffffffffffffffffffffffffffffffffffffff16815260200190815260200160002060008282546112ce9190612d61565b925050819055506001600360008473ffffffffffffffffffffffffffffffffffffffff1673ffffffffffffffffffffffffffffffffffffffff16815260200190815260200160002060008282546113259190612d0b565b92505081905550816002600083815260200190815260200160002060006101000a81548173ffffffffffffffffffffffffffffffffffffffff021916908373ffffffffffffffffffffffffffffffffffffffff160217905550808273ffffffffffffffffffffffffffffffffffffffff168473ffffffffffffffffffffffffffffffffffffffff167fddf252ad1be2c89b69c2b068fc378daa952ba7f163c4a11628f55a4df523b3ef60405160405180910390a4505050565b6113e9848484611182565b6113f58484848461166e565b611434576040517f08c379a000000000000000000000000000000000000000000000000000000000815260040161142b90612a07565b60405180910390fd5b50505050565b6001816000016000828254019250508190555050565b600081600001549050919050565b611478828260405180602001604052806000815250611805565b5050565b61148582610f77565b6114c4576040517f08c379a00000000000000000000000000000000000000000000000000000000081526004016114bb90612b47565b60405180910390fd5b80600a600084815260200190815260200160002090805190602001906114eb929190611dbe565b505050565b60007f01ffc9a7000000000000000000000000000000000000000000000000000000007bffffffffffffffffffffffffffffffffffffffffffffffffffffffff1916827bffffffffffffffffffffffffffffffffffffffffffffffffffffffff1916149050919050565b611565838383611860565b600073ffffffffffffffffffffffffffffffffffffffff168373ffffffffffffffffffffffffffffffffffffffff1614156115a8576115a381611865565b6115e7565b8173ffffffffffffffffffffffffffffffffffffffff168373ffffffffffffffffffffffffffffffffffffffff16146115e6576115e583826118ae565b5b5b600073ffffffffffffffffffffffffffffffffffffffff168273ffffffffffffffffffffffffffffffffffffffff16141561162a5761162581611a1b565b611669565b8273ffffffffffffffffffffffffffffffffffffffff168273ffffffffffffffffffffffffffffffffffffffff1614611668576116678282611b5e565b5b5b505050565b600061168f8473ffffffffffffffffffffffffffffffffffffffff16611bdd565b156117f8578373ffffffffffffffffffffffffffffffffffffffff1663150b7a026116b8610fe3565b8786866040518563ffffffff1660e01b81526004016116da949392919061295e565b602060405180830381600087803b1580156116f457600080fd5b505af192505050801561172557506040513d601f19601f8201168201806040525081019061172291906121be565b60015b6117a8573d8060008114611755576040519150601f19603f3d011682016040523d82523d6000602084013e61175a565b606091505b506000815114156117a0576040517f08c379a000000000000000000000000000000000000000000000000000000000815260040161179790612a07565b60405180910390fd5b805181602001fd5b63150b7a0260e01b7bffffffffffffffffffffffffffffffffffffffffffffffffffffffff1916817bffffffffffffffffffffffffffffffffffffffffffffffffffffffff1916149150506117fd565b600190505b949350505050565b61180f8383611bf0565b61181c600084848461166e565b61185b576040517f08c379a000000000000000000000000000000000000000000000000000000000815260040161185290612a07565b60405180910390fd5b505050565b505050565b6008805490506009600083815260200190815260200160002081905550600881908060018154018082558091505060019003906000526020600020016000909190919091505550565b600060016118bb846108f3565b6118c59190612d61565b90506000600760008481526020019081526020016000205490508181146119aa576000600660008673ffffffffffffffffffffffffffffffffffffffff1673ffffffffffffffffffffffffffffffffffffffff168152602001908152602001600020600084815260200190815260200160002054905080600660008773ffffffffffffffffffffffffffffffffffffffff1673ffffffffffffffffffffffffffffffffffffffff168152602001908152602001600020600084815260200190815260200160002081905550816007600083815260200190815260200160002081905550505b6007600084815260200190815260200160002060009055600660008573ffffffffffffffffffffffffffffffffffffffff1673ffffffffffffffffffffffffffffffffffffffff16815260200190815260200160002060008381526020019081526020016000206000905550505050565b60006001600880549050611a2f9190612d61565b9050600060096000848152602001908152602001600020549050600060088381548110611a85577f4e487b7100000000000000000000000000000000000000000000000000000000600052603260045260246000fd5b906000526020600020015490508060088381548110611acd577f4e487b7100000000000000000000000000000000000000000000000000000000600052603260045260246000fd5b906000526020600020018190555081600960008381526020019081526020016000208190555060096000858152602001908152602001600020600090556008805480611b42577f4e487b7100000000000000000000000000000000000000000000000000000000600052603160045260246000fd5b6001900381819060005260206000200160009055905550505050565b6000611b69836108f3565b905081600660008573ffffffffffffffffffffffffffffffffffffffff1673ffffffffffffffffffffffffffffffffffffffff168152602001908152602001600020600083815260200190815260200160002081905550806007600084815260200190815260200160002081905550505050565b600080823b905060008111915050919050565b600073ffffffffffffffffffffffffffffffffffffffff168273ffffffffffffffffffffffffffffffffffffffff161415611c60576040517f08c379a0000000000000000000000000000000000000000000000000000000008152600401611c5790612b07565b60405180910390fd5b611c6981610f77565b15611ca9576040517f08c379a0000000000000000000000000000000000000000000000000000000008152600401611ca090612a27565b60405180910390fd5b611cb56000838361155a565b6001600360008473ffffffffffffffffffffffffffffffffffffffff1673ffffffffffffffffffffffffffffffffffffffff1681526020019081526020016000206000828254611d059190612d0b565b92505081905550816002600083815260200190815260200160002060006101000a81548173ffffffffffffffffffffffffffffffffffffffff021916908373ffffffffffffffffffffffffffffffffffffffff160217905550808273ffffffffffffffffffffffffffffffffffffffff16600073ffffffffffffffffffffffffffffffffffffffff167fddf252ad1be2c89b69c2b068fc378daa952ba7f163c4a11628f55a4df523b3ef60405160405180910390a45050565b828054611dca90612e4b565b90600052602060002090601f016020900481019282611dec5760008555611e33565b82601f10611e0557805160ff1916838001178555611e33565b82800160010185558215611e33579182015b82811115611e32578251825591602001919060010190611e17565b5b509050611e409190611e44565b5090565b5b80821115611e5d576000816000905550600101611e45565b5090565b6000611e74611e6f84612c73565b612c42565b905082815260208101848484011115611e8c57600080fd5b611e97848285612e09565b509392505050565b6000611eb2611ead84612ca3565b612c42565b905082815260208101848484011115611eca57600080fd5b611ed5848285612e09565b509392505050565b600081359050611eec81612f1b565b92915050565b600081359050611f0181612f32565b92915050565b600081359050611f1681612f49565b92915050565b600081519050611f2b81612f49565b92915050565b600082601f830112611f4257600080fd5b8135611f52848260208601611e61565b91505092915050565b600082601f830112611f6c57600080fd5b8135611f7c848260208601611e9f565b91505092915050565b600081359050611f9481612f60565b92915050565b600060208284031215611fac57600080fd5b6000611fba84828501611edd565b91505092915050565b60008060408385031215611fd657600080fd5b6000611fe485828601611edd565b9250506020611ff585828601611edd565b9150509250929050565b60008060006060848603121561201457600080fd5b600061202286828701611edd565b935050602061203386828701611edd565b925050604061204486828701611f85565b9150509250925092565b6000806000806080858703121561206457600080fd5b600061207287828801611edd565b945050602061208387828801611edd565b935050604061209487828801611f85565b925050606085013567ffffffffffffffff8111156120b157600080fd5b6120bd87828801611f31565b91505092959194509250565b600080604083850312156120dc57600080fd5b60006120ea85828601611edd565b92505060206120fb85828601611ef2565b9150509250929050565b6000806040838503121561211857600080fd5b600061212685828601611edd565b925050602083013567ffffffffffffffff81111561214357600080fd5b61214f85828601611f5b565b9150509250929050565b6000806040838503121561216c57600080fd5b600061217a85828601611edd565b925050602061218b85828601611f85565b9150509250929050565b6000602082840312156121a757600080fd5b60006121b584828501611f07565b91505092915050565b6000602082840312156121d057600080fd5b60006121de84828501611f1c565b91505092915050565b6000602082840312156121f957600080fd5b600061220784828501611f85565b91505092915050565b61221981612d95565b82525050565b61222881612da7565b82525050565b600061223982612cd3565b6122438185612ce9565b9350612253818560208601612e18565b61225c81612f0a565b840191505092915050565b600061227282612cde565b61227c8185612cfa565b935061228c818560208601612e18565b61229581612f0a565b840191505092915050565b60006122ad602b83612cfa565b91507f455243373231456e756d657261626c653a206f776e657220696e646578206f7560008301527f74206f6620626f756e64730000000000000000000000000000000000000000006020830152604082019050919050565b6000612313603283612cfa565b91507f4552433732313a207472616e7366657220746f206e6f6e20455243373231526560008301527f63656976657220696d706c656d656e74657200000000000000000000000000006020830152604082019050919050565b6000612379601c83612cfa565b91507f4552433732313a20746f6b656e20616c7265616479206d696e746564000000006000830152602082019050919050565b60006123b9602483612cfa565b91507f4552433732313a207472616e7366657220746f20746865207a65726f2061646460008301527f72657373000000000000000000000000000000000000000000000000000000006020830152604082019050919050565b600061241f601983612cfa565b91507f4552433732313a20617070726f766520746f2063616c6c6572000000000000006000830152602082019050919050565b600061245f602c83612cfa565b91507f4552433732313a206f70657261746f7220717565727920666f72206e6f6e657860008301527f697374656e7420746f6b656e00000000000000000000000000000000000000006020830152604082019050919050565b60006124c5603883612cfa565b91507f4552433732313a20617070726f76652063616c6c6572206973206e6f74206f7760008301527f6e6572206e6f7220617070726f76656420666f7220616c6c00000000000000006020830152604082019050919050565b600061252b602a83612cfa565b91507f4552433732313a2062616c616e636520717565727920666f7220746865207a6560008301527f726f2061646472657373000000000000000000000000000000000000000000006020830152604082019050919050565b6000612591602983612cfa565b91507f4552433732313a206f776e657220717565727920666f72206e6f6e657869737460008301527f656e7420746f6b656e00000000000000000000000000000000000000000000006020830152604082019050919050565b60006125f7602083612cfa565b91507f4552433732313a206d696e7420746f20746865207a65726f20616464726573736000830152602082019050919050565b6000612637602c83612cfa565b91507f4552433732313a20617070726f76656420717565727920666f72206e6f6e657860008301527f697374656e7420746f6b656e00000000000000000000000000000000000000006020830152604082019050919050565b600061269d602c83612cfa565b91507f4552433732314d657461646174613a2055524920736574206f66206e6f6e657860008301527f697374656e7420746f6b656e00000000000000000000000000000000000000006020830152604082019050919050565b6000612703602983612cfa565b91507f4552433732313a207472616e73666572206f6620746f6b656e2074686174206960008301527f73206e6f74206f776e00000000000000000000000000000000000000000000006020830152604082019050919050565b6000612769602f83612cfa565b91507f4552433732314d657461646174613a2055524920717565727920666f72206e6f60008301527f6e6578697374656e7420746f6b656e00000000000000000000000000000000006020830152604082019050919050565b60006127cf600a83612cfa565b91507f6f6e6c79206f776e6572000000000000000000000000000000000000000000006000830152602082019050919050565b600061280f602183612cfa565b91507f4552433732313a20617070726f76616c20746f2063757272656e74206f776e6560008301527f72000000000000000000000000000000000000000000000000000000000000006020830152604082019050919050565b6000612875603183612cfa565b91507f4552433732313a207472616e736665722063616c6c6572206973206e6f74206f60008301527f776e6572206e6f7220617070726f7665640000000000000000000000000000006020830152604082019050919050565b60006128db602c83612cfa565b91507f455243373231456e756d657261626c653a20676c6f62616c20696e646578206f60008301527f7574206f6620626f756e647300000000000000000000000000000000000000006020830152604082019050919050565b61293d81612dff565b82525050565b60006020820190506129586000830184612210565b92915050565b60006080820190506129736000830187612210565b6129806020830186612210565b61298d6040830185612934565b818103606083015261299f818461222e565b905095945050505050565b60006020820190506129bf600083018461221f565b92915050565b600060208201905081810360008301526129df8184612267565b905092915050565b60006020820190508181036000830152612a00816122a0565b9050919050565b60006020820190508181036000830152612a2081612306565b9050919050565b60006020820190508181036000830152612a408161236c565b9050919050565b60006020820190508181036000830152612a60816123ac565b9050919050565b60006020820190508181036000830152612a8081612412565b9050919050565b60006020820190508181036000830152612aa081612452565b9050919050565b60006020820190508181036000830152612ac0816124b8565b9050919050565b60006020820190508181036000830152612ae08161251e565b9050919050565b60006020820190508181036000830152612b0081612584565b9050919050565b60006020820190508181036000830152612b20816125ea565b9050919050565b60006020820190508181036000830152612b408161262a565b9050919050565b60006020820190508181036000830152612b6081612690565b9050919050565b60006020820190508181036000830152612b80816126f6565b9050919050565b60006020820190508181036000830152612ba08161275c565b9050919050565b60006020820190508181036000830152612bc0816127c2565b9050919050565b60006020820190508181036000830152612be081612802565b9050919050565b60006020820190508181036000830152612c0081612868565b9050919050565b60006020820190508181036000830152612c20816128ce565b9050919050565b6000602082019050612c3c6000830184612934565b92915050565b6000604051905081810181811067ffffffffffffffff82111715612c6957612c68612edb565b5b8060405250919050565b600067ffffffffffffffff821115612c8e57612c8d612edb565b5b601f19601f8301169050602081019050919050565b600067ffffffffffffffff821115612cbe57612cbd612edb565b5b601f19601f8301169050602081019050919050565b600081519050919050565b600081519050919050565b600082825260208201905092915050565b600082825260208201905092915050565b6000612d1682612dff565b9150612d2183612dff565b9250827fffffffffffffffffffffffffffffffffffffffffffffffffffffffffffffffff03821115612d5657612d55612e7d565b5b828201905092915050565b6000612d6c82612dff565b9150612d7783612dff565b925082821015612d8a57612d89612e7d565b5b828203905092915050565b6000612da082612ddf565b9050919050565b60008115159050919050565b60007fffffffff0000000000000000000000000000000000000000000000000000000082169050919050565b600073ffffffffffffffffffffffffffffffffffffffff82169050919050565b6000819050919050565b82818337600083830152505050565b60005b83811015612e36578082015181840152602081019050612e1b565b83811115612e45576000848401525b50505050565b60006002820490506001821680612e6357607f821691505b60208210811415612e7757612e76612eac565b5b50919050565b7f4e487b7100000000000000000000000000000000000000000000000000000000600052601160045260246000fd5b7f4e487b7100000000000000000000000000000000000000000000000000000000600052602260045260246000fd5b7f4e487b7100000000000000000000000000000000000000000000000000000000600052604160045260246000fd5b6000601f19601f8301169050919050565b612f2481612d95565b8114612f2f57600080fd5b50565b612f3b81612da7565b8114612f4657600080fd5b50565b612f5281612db3565b8114612f5d57600080fd5b50565b612f6981612dff565b8114612f7457600080fd5b5056fea2646970667358221220ef20c89db02a271e8794f37b54afe6229f7f29ef023b33a1e83f3047e3ee0b1764736f6c63430008000033",
  "immutableReferences": {},
  "source": "// SPDX-License-Identifier: MIT\npragma solidity ^0.8.0;\n\nimport \"@openzeppelin/contracts/token/ERC721/extensions/ERC721Enumerable.sol\";\nimport \"@openzeppelin/contracts/utils/Counters.sol\";\n\ncontract NFT is ERC721Enumerable  {\n\n    mapping (uint256 => string) private _tokenURIs;\n    using Counters for Counters.Counter;\n    Counters.Counter private _tokenIds;\n    mapping(string => uint8) hashes;\n    address public owner = msg.sender;\n\n    constructor() ERC721(\"Elements NFT\", \"ELM\") {\n        owner = msg.sender;\n    }\n\n\n    function mint(address to, string memory uri) external returns (uint256){\n        require(msg.sender == owner, \"only owner\");\n        _tokenIds.increment();\n        uint256 newItemId = _tokenIds.current();\n        _safeMint(to, newItemId);\n        _setTokenURI(newItemId, uri);\n        return newItemId;\n    }\n\n    function _setTokenURI(uint256 tokenId, string memory _tokenURI) internal virtual {\n        require(_exists(tokenId), \"ERC721Metadata: URI set of nonexistent token\");\n        _tokenURIs[tokenId] = _tokenURI;\n    }\n    \n    function tokenURI(uint256 tokenId) public view virtual override returns (string memory) {\n        require(_exists(tokenId), \"ERC721Metadata: URI query for nonexistent token\");\n        string memory _tokenURI = _tokenURIs[tokenId];\n        return _tokenURI;\n    }\n}\n",
  "sourcePath": "/home/takima/blockchain/ERC721Template/smartContract/contracts/NFT.sol",
  "compiler": {
    "name": "solc",
    "version": "0.8.0+commit.c7dfd78e.Emscripten.clang"
  },
  "schemaVersion": "3.4.7",
  "updatedAt": "2022-04-14T09:06:59.261Z",
  "networkType": "ethereum",
  "devdoc": {
    "kind": "dev",
    "methods": {
      "approve(address,uint256)": {
        "details": "See {IERC721-approve}."
      },
      "balanceOf(address)": {
        "details": "See {IERC721-balanceOf}."
      },
      "getApproved(uint256)": {
        "details": "See {IERC721-getApproved}."
      },
      "isApprovedForAll(address,address)": {
        "details": "See {IERC721-isApprovedForAll}."
      },
      "name()": {
        "details": "See {IERC721Metadata-name}."
      },
      "ownerOf(uint256)": {
        "details": "See {IERC721-ownerOf}."
      },
      "safeTransferFrom(address,address,uint256)": {
        "details": "See {IERC721-safeTransferFrom}."
      },
      "safeTransferFrom(address,address,uint256,bytes)": {
        "details": "See {IERC721-safeTransferFrom}."
      },
      "setApprovalForAll(address,bool)": {
        "details": "See {IERC721-setApprovalForAll}."
      },
      "supportsInterface(bytes4)": {
        "details": "See {IERC165-supportsInterface}."
      },
      "symbol()": {
        "details": "See {IERC721Metadata-symbol}."
      },
      "tokenByIndex(uint256)": {
        "details": "See {IERC721Enumerable-tokenByIndex}."
      },
      "tokenOfOwnerByIndex(address,uint256)": {
        "details": "See {IERC721Enumerable-tokenOfOwnerByIndex}."
      },
      "tokenURI(uint256)": {
        "details": "See {IERC721Metadata-tokenURI}."
      },
      "totalSupply()": {
        "details": "See {IERC721Enumerable-totalSupply}."
      },
      "transferFrom(address,address,uint256)": {
        "details": "See {IERC721-transferFrom}."
      }
    },
    "version": 1
  },
  "userdoc": {
    "kind": "user",
    "methods": {},
    "version": 1
  }
}